{
    "_format": "hh-sol-artifact-1",
    "contractName": "UserDataNFT",
    "sourceName": "contracts/UserDataNFT .sol",
    "abi": [
        {
            "inputs": [],
            "stateMutability": "nonpayable",
            "type": "constructor"
        },
        {
            "inputs": [
                {
                    "internalType": "address",
                    "name": "sender",
                    "type": "address"
                },
                {
                    "internalType": "uint256",
                    "name": "tokenId",
                    "type": "uint256"
                },
                {
                    "internalType": "address",
                    "name": "owner",
                    "type": "address"
                }
            ],
            "name": "ERC721IncorrectOwner",
            "type": "error"
        },
        {
            "inputs": [
                {
                    "internalType": "address",
                    "name": "operator",
                    "type": "address"
                },
                {
                    "internalType": "uint256",
                    "name": "tokenId",
                    "type": "uint256"
                }
            ],
            "name": "ERC721InsufficientApproval",
            "type": "error"
        },
        {
            "inputs": [
                {
                    "internalType": "address",
                    "name": "approver",
                    "type": "address"
                }
            ],
            "name": "ERC721InvalidApprover",
            "type": "error"
        },
        {
            "inputs": [
                {
                    "internalType": "address",
                    "name": "operator",
                    "type": "address"
                }
            ],
            "name": "ERC721InvalidOperator",
            "type": "error"
        },
        {
            "inputs": [
                {
                    "internalType": "address",
                    "name": "owner",
                    "type": "address"
                }
            ],
            "name": "ERC721InvalidOwner",
            "type": "error"
        },
        {
            "inputs": [
                {
                    "internalType": "address",
                    "name": "receiver",
                    "type": "address"
                }
            ],
            "name": "ERC721InvalidReceiver",
            "type": "error"
        },
        {
            "inputs": [
                {
                    "internalType": "address",
                    "name": "sender",
                    "type": "address"
                }
            ],
            "name": "ERC721InvalidSender",
            "type": "error"
        },
        {
            "inputs": [
                {
                    "internalType": "uint256",
                    "name": "tokenId",
                    "type": "uint256"
                }
            ],
            "name": "ERC721NonexistentToken",
            "type": "error"
        },
        {
            "anonymous": false,
            "inputs": [
                {
                    "indexed": true,
                    "internalType": "address",
                    "name": "owner",
                    "type": "address"
                },
                {
                    "indexed": true,
                    "internalType": "address",
                    "name": "approved",
                    "type": "address"
                },
                {
                    "indexed": true,
                    "internalType": "uint256",
                    "name": "tokenId",
                    "type": "uint256"
                }
            ],
            "name": "Approval",
            "type": "event"
        },
        {
            "anonymous": false,
            "inputs": [
                {
                    "indexed": true,
                    "internalType": "address",
                    "name": "owner",
                    "type": "address"
                },
                {
                    "indexed": true,
                    "internalType": "address",
                    "name": "operator",
                    "type": "address"
                },
                {
                    "indexed": false,
                    "internalType": "bool",
                    "name": "approved",
                    "type": "bool"
                }
            ],
            "name": "ApprovalForAll",
            "type": "event"
        },
        {
            "anonymous": false,
            "inputs": [
                {
                    "indexed": true,
                    "internalType": "address",
                    "name": "from",
                    "type": "address"
                },
                {
                    "indexed": true,
                    "internalType": "address",
                    "name": "to",
                    "type": "address"
                },
                {
                    "indexed": true,
                    "internalType": "uint256",
                    "name": "tokenId",
                    "type": "uint256"
                }
            ],
            "name": "Transfer",
            "type": "event"
        },
        {
            "inputs": [
                {
                    "internalType": "address",
                    "name": "to",
                    "type": "address"
                },
                {
                    "internalType": "uint256",
                    "name": "tokenId",
                    "type": "uint256"
                }
            ],
            "name": "approve",
            "outputs": [],
            "stateMutability": "nonpayable",
            "type": "function"
        },
        {
            "inputs": [
                {
                    "internalType": "address",
                    "name": "owner",
                    "type": "address"
                }
            ],
            "name": "balanceOf",
            "outputs": [
                {
                    "internalType": "uint256",
                    "name": "",
                    "type": "uint256"
                }
            ],
            "stateMutability": "view",
            "type": "function"
        },
        {
            "inputs": [
                {
                    "internalType": "string",
                    "name": "_name",
                    "type": "string"
                },
                {
                    "internalType": "string",
                    "name": "_addressDetails",
                    "type": "string"
                },
                {
                    "internalType": "string",
                    "name": "_email",
                    "type": "string"
                },
                {
                    "internalType": "uint256",
                    "name": "_age",
                    "type": "uint256"
                }
            ],
            "name": "createUserDataNFT",
            "outputs": [
                {
                    "internalType": "uint256",
                    "name": "",
                    "type": "uint256"
                }
            ],
            "stateMutability": "nonpayable",
            "type": "function"
        },
        {
            "inputs": [
                {
                    "internalType": "uint256",
                    "name": "tokenId",
                    "type": "uint256"
                }
            ],
            "name": "getApproved",
            "outputs": [
                {
                    "internalType": "address",
                    "name": "",
                    "type": "address"
                }
            ],
            "stateMutability": "view",
            "type": "function"
        },
        {
            "inputs": [
                {
                    "internalType": "uint256",
                    "name": "tokenId",
                    "type": "uint256"
                }
            ],
            "name": "getNFTOwner",
            "outputs": [
                {
                    "internalType": "address",
                    "name": "",
                    "type": "address"
                }
            ],
            "stateMutability": "view",
            "type": "function"
        },
        {
            "inputs": [
                {
                    "internalType": "uint256",
                    "name": "tokenId",
                    "type": "uint256"
                }
            ],
            "name": "getUserData",
            "outputs": [
                {
                    "internalType": "string",
                    "name": "name",
                    "type": "string"
                },
                {
                    "internalType": "string",
                    "name": "addressDetails",
                    "type": "string"
                },
                {
                    "internalType": "string",
                    "name": "email",
                    "type": "string"
                },
                {
                    "internalType": "uint256",
                    "name": "age",
                    "type": "uint256"
                }
            ],
            "stateMutability": "view",
            "type": "function"
        },
        {
            "inputs": [
                {
                    "internalType": "address",
                    "name": "owner",
                    "type": "address"
                },
                {
                    "internalType": "address",
                    "name": "operator",
                    "type": "address"
                }
            ],
            "name": "isApprovedForAll",
            "outputs": [
                {
                    "internalType": "bool",
                    "name": "",
                    "type": "bool"
                }
            ],
            "stateMutability": "view",
            "type": "function"
        },
        {
            "inputs": [],
            "name": "name",
            "outputs": [
                {
                    "internalType": "string",
                    "name": "",
                    "type": "string"
                }
            ],
            "stateMutability": "view",
            "type": "function"
        },
        {
            "inputs": [
                {
                    "internalType": "uint256",
                    "name": "tokenId",
                    "type": "uint256"
                }
            ],
            "name": "ownerOf",
            "outputs": [
                {
                    "internalType": "address",
                    "name": "",
                    "type": "address"
                }
            ],
            "stateMutability": "view",
            "type": "function"
        },
        {
            "inputs": [
                {
                    "internalType": "address",
                    "name": "from",
                    "type": "address"
                },
                {
                    "internalType": "address",
                    "name": "to",
                    "type": "address"
                },
                {
                    "internalType": "uint256",
                    "name": "tokenId",
                    "type": "uint256"
                }
            ],
            "name": "safeTransferFrom",
            "outputs": [],
            "stateMutability": "nonpayable",
            "type": "function"
        },
        {
            "inputs": [
                {
                    "internalType": "address",
                    "name": "from",
                    "type": "address"
                },
                {
                    "internalType": "address",
                    "name": "to",
                    "type": "address"
                },
                {
                    "internalType": "uint256",
                    "name": "tokenId",
                    "type": "uint256"
                },
                {
                    "internalType": "bytes",
                    "name": "data",
                    "type": "bytes"
                }
            ],
            "name": "safeTransferFrom",
            "outputs": [],
            "stateMutability": "nonpayable",
            "type": "function"
        },
        {
            "inputs": [
                {
                    "internalType": "address",
                    "name": "operator",
                    "type": "address"
                },
                {
                    "internalType": "bool",
                    "name": "approved",
                    "type": "bool"
                }
            ],
            "name": "setApprovalForAll",
            "outputs": [],
            "stateMutability": "nonpayable",
            "type": "function"
        },
        {
            "inputs": [
                {
                    "internalType": "bytes4",
                    "name": "interfaceId",
                    "type": "bytes4"
                }
            ],
            "name": "supportsInterface",
            "outputs": [
                {
                    "internalType": "bool",
                    "name": "",
                    "type": "bool"
                }
            ],
            "stateMutability": "view",
            "type": "function"
        },
        {
            "inputs": [],
            "name": "symbol",
            "outputs": [
                {
                    "internalType": "string",
                    "name": "",
                    "type": "string"
                }
            ],
            "stateMutability": "view",
            "type": "function"
        },
        {
            "inputs": [],
            "name": "tokenCounter",
            "outputs": [
                {
                    "internalType": "uint256",
                    "name": "",
                    "type": "uint256"
                }
            ],
            "stateMutability": "view",
            "type": "function"
        },
        {
            "inputs": [
                {
                    "internalType": "uint256",
                    "name": "",
                    "type": "uint256"
                }
            ],
            "name": "tokenIdToUserData",
            "outputs": [
                {
                    "internalType": "string",
                    "name": "name",
                    "type": "string"
                },
                {
                    "internalType": "string",
                    "name": "addressDetails",
                    "type": "string"
                },
                {
                    "internalType": "string",
                    "name": "email",
                    "type": "string"
                },
                {
                    "internalType": "uint256",
                    "name": "age",
                    "type": "uint256"
                }
            ],
            "stateMutability": "view",
            "type": "function"
        },
        {
            "inputs": [
                {
                    "internalType": "uint256",
                    "name": "tokenId",
                    "type": "uint256"
                }
            ],
            "name": "tokenURI",
            "outputs": [
                {
                    "internalType": "string",
                    "name": "",
                    "type": "string"
                }
            ],
            "stateMutability": "view",
            "type": "function"
        },
        {
            "inputs": [
                {
                    "internalType": "address",
                    "name": "from",
                    "type": "address"
                },
                {
                    "internalType": "address",
                    "name": "to",
                    "type": "address"
                },
                {
                    "internalType": "uint256",
                    "name": "tokenId",
                    "type": "uint256"
                }
            ],
            "name": "transferFrom",
            "outputs": [],
            "stateMutability": "nonpayable",
            "type": "function"
        }
    ],
    "bytecode": "0x60806040523480156200001157600080fd5b506040518060400160405280600b81526020017f55736572446174614e46540000000000000000000000000000000000000000008152506040518060400160405280600581526020017f55444e465400000000000000000000000000000000000000000000000000000081525081600090816200008f91906200032c565b508060019081620000a191906200032c565b505050600060068190555062000413565b600081519050919050565b7f4e487b7100000000000000000000000000000000000000000000000000000000600052604160045260246000fd5b7f4e487b7100000000000000000000000000000000000000000000000000000000600052602260045260246000fd5b600060028204905060018216806200013457607f821691505b6020821081036200014a5762000149620000ec565b5b50919050565b60008190508160005260206000209050919050565b60006020601f8301049050919050565b600082821b905092915050565b600060088302620001b47fffffffffffffffffffffffffffffffffffffffffffffffffffffffffffffffff8262000175565b620001c0868362000175565b95508019841693508086168417925050509392505050565b6000819050919050565b6000819050919050565b60006200020d620002076200020184620001d8565b620001e2565b620001d8565b9050919050565b6000819050919050565b6200022983620001ec565b62000241620002388262000214565b84845462000182565b825550505050565b600090565b6200025862000249565b620002658184846200021e565b505050565b5b818110156200028d57620002816000826200024e565b6001810190506200026b565b5050565b601f821115620002dc57620002a68162000150565b620002b18462000165565b81016020851015620002c1578190505b620002d9620002d08562000165565b8301826200026a565b50505b505050565b600082821c905092915050565b60006200030160001984600802620002e1565b1980831691505092915050565b60006200031c8383620002ee565b9150826002028217905092915050565b6200033782620000b2565b67ffffffffffffffff811115620003535762000352620000bd565b5b6200035f82546200011b565b6200036c82828562000291565b600060209050601f831160018114620003a457600084156200038f578287015190505b6200039b85826200030e565b8655506200040b565b601f198416620003b48662000150565b60005b82811015620003de57848901518255600182019150602085019450602081019050620003b7565b86831015620003fe5784890151620003fa601f891682620002ee565b8355505b6001600288020188555050505b505050505050565b61281880620004236000396000f3fe608060405234801561001057600080fd5b50600436106101165760003560e01c806395d89b41116100a2578063d082e38111610071578063d082e38114610306578063deaea2e314610324578063e21a613514610354578063e68551ea14610387578063e985e9c5146103b757610116565b806395d89b4114610280578063a22cb4651461029e578063b88d4fde146102ba578063c87b56dd146102d657610116565b80631fef580c116100e95780631fef580c146101b557806323b872dd146101e857806342842e0e146102045780636352211e1461022057806370a082311461025057610116565b806301ffc9a71461011b57806306fdde031461014b578063081812fc14610169578063095ea7b314610199575b600080fd5b61013560048036038101906101309190611bcb565b6103e7565b6040516101429190611c13565b60405180910390f35b6101536104c9565b6040516101609190611cbe565b60405180910390f35b610183600480360381019061017e9190611d16565b61055b565b6040516101909190611d84565b60405180910390f35b6101b360048036038101906101ae9190611dcb565b610577565b005b6101cf60048036038101906101ca9190611d16565b61058d565b6040516101df9493929190611e1a565b60405180910390f35b61020260048036038101906101fd9190611e74565b610799565b005b61021e60048036038101906102199190611e74565b61089b565b005b61023a60048036038101906102359190611d16565b6108bb565b6040516102479190611d84565b60405180910390f35b61026a60048036038101906102659190611ec7565b6108cd565b6040516102779190611ef4565b60405180910390f35b610288610987565b6040516102959190611cbe565b60405180910390f35b6102b860048036038101906102b39190611f3b565b610a19565b005b6102d460048036038101906102cf91906120b0565b610a2f565b005b6102f060048036038101906102eb9190611d16565b610a4c565b6040516102fd9190611cbe565b60405180910390f35b61030e610ab5565b60405161031b9190611ef4565b60405180910390f35b61033e60048036038101906103399190611d16565b610abb565b60405161034b9190611d84565b60405180910390f35b61036e60048036038101906103699190611d16565b610acd565b60405161037e9493929190611e1a565b60405180910390f35b6103a1600480360381019061039c91906121d4565b610c95565b6040516103ae9190611ef4565b60405180910390f35b6103d160048036038101906103cc919061228f565b610d50565b6040516103de9190611c13565b60405180910390f35b60007f80ac58cd000000000000000000000000000000000000000000000000000000007bffffffffffffffffffffffffffffffffffffffffffffffffffffffff1916827bffffffffffffffffffffffffffffffffffffffffffffffffffffffff191614806104b257507f5b5e139f000000000000000000000000000000000000000000000000000000007bffffffffffffffffffffffffffffffffffffffffffffffffffffffff1916827bffffffffffffffffffffffffffffffffffffffffffffffffffffffff1916145b806104c257506104c182610de4565b5b9050919050565b6060600080546104d8906122fe565b80601f0160208091040260200160405190810160405280929190818152602001828054610504906122fe565b80156105515780601f1061052657610100808354040283529160200191610551565b820191906000526020600020905b81548152906001019060200180831161053457829003601f168201915b5050505050905090565b600061056682610e4e565b5061057082610ed6565b9050919050565b6105898282610584610f13565b610f1b565b5050565b6060806060600080600760008781526020019081526020016000206040518060800160405290816000820180546105c3906122fe565b80601f01602080910402602001604051908101604052809291908181526020018280546105ef906122fe565b801561063c5780601f106106115761010080835404028352916020019161063c565b820191906000526020600020905b81548152906001019060200180831161061f57829003601f168201915b50505050508152602001600182018054610655906122fe565b80601f0160208091040260200160405190810160405280929190818152602001828054610681906122fe565b80156106ce5780601f106106a3576101008083540402835291602001916106ce565b820191906000526020600020905b8154815290600101906020018083116106b157829003601f168201915b505050505081526020016002820180546106e7906122fe565b80601f0160208091040260200160405190810160405280929190818152602001828054610713906122fe565b80156107605780601f1061073557610100808354040283529160200191610760565b820191906000526020600020905b81548152906001019060200180831161074357829003601f168201915b50505050508152602001600382015481525050905080600001518160200151826040015183606001519450945094509450509193509193565b600073ffffffffffffffffffffffffffffffffffffffff168273ffffffffffffffffffffffffffffffffffffffff160361080b5760006040517f64a0ae920000000000000000000000000000000000000000000000000000000081526004016108029190611d84565b60405180910390fd5b600061081f838361081a610f13565b610f2d565b90508373ffffffffffffffffffffffffffffffffffffffff168173ffffffffffffffffffffffffffffffffffffffff1614610895578382826040517f64283d7b00000000000000000000000000000000000000000000000000000000815260040161088c9392919061232f565b60405180910390fd5b50505050565b6108b683838360405180602001604052806000815250610a2f565b505050565b60006108c682610e4e565b9050919050565b60008073ffffffffffffffffffffffffffffffffffffffff168273ffffffffffffffffffffffffffffffffffffffff16036109405760006040517f89c62b640000000000000000000000000000000000000000000000000000000081526004016109379190611d84565b60405180910390fd5b600360008373ffffffffffffffffffffffffffffffffffffffff1673ffffffffffffffffffffffffffffffffffffffff168152602001908152602001600020549050919050565b606060018054610996906122fe565b80601f01602080910402602001604051908101604052809291908181526020018280546109c2906122fe565b8015610a0f5780601f106109e457610100808354040283529160200191610a0f565b820191906000526020600020905b8154815290600101906020018083116109f257829003601f168201915b5050505050905090565b610a2b610a24610f13565b8383611147565b5050565b610a3a848484610799565b610a46848484846112b6565b50505050565b6060610a5782610e4e565b506000610a6261146d565b90506000815111610a825760405180602001604052806000815250610aad565b80610a8c84611484565b604051602001610a9d9291906123a2565b6040516020818303038152906040525b915050919050565b60065481565b6000610ac6826108bb565b9050919050565b6007602052806000526040600020600091509050806000018054610af0906122fe565b80601f0160208091040260200160405190810160405280929190818152602001828054610b1c906122fe565b8015610b695780601f10610b3e57610100808354040283529160200191610b69565b820191906000526020600020905b815481529060010190602001808311610b4c57829003601f168201915b505050505090806001018054610b7e906122fe565b80601f0160208091040260200160405190810160405280929190818152602001828054610baa906122fe565b8015610bf75780601f10610bcc57610100808354040283529160200191610bf7565b820191906000526020600020905b815481529060010190602001808311610bda57829003601f168201915b505050505090806002018054610c0c906122fe565b80601f0160208091040260200160405190810160405280929190818152602001828054610c38906122fe565b8015610c855780601f10610c5a57610100808354040283529160200191610c85565b820191906000526020600020905b815481529060010190602001808311610c6857829003601f168201915b5050505050908060030154905084565b6000806006549050610ca73382611552565b604051806080016040528087815260200186815260200185815260200184815250600760008381526020019081526020016000206000820151816000019081610cf09190612572565b506020820151816001019081610d069190612572565b506040820151816002019081610d1c9190612572565b5060608201518160030155905050600160066000828254610d3d9190612673565b9250508190555080915050949350505050565b6000600560008473ffffffffffffffffffffffffffffffffffffffff1673ffffffffffffffffffffffffffffffffffffffff16815260200190815260200160002060008373ffffffffffffffffffffffffffffffffffffffff1673ffffffffffffffffffffffffffffffffffffffff16815260200190815260200160002060009054906101000a900460ff16905092915050565b60007f01ffc9a7000000000000000000000000000000000000000000000000000000007bffffffffffffffffffffffffffffffffffffffffffffffffffffffff1916827bffffffffffffffffffffffffffffffffffffffffffffffffffffffff1916149050919050565b600080610e5a83611570565b9050600073ffffffffffffffffffffffffffffffffffffffff168173ffffffffffffffffffffffffffffffffffffffff1603610ecd57826040517f7e273289000000000000000000000000000000000000000000000000000000008152600401610ec49190611ef4565b60405180910390fd5b80915050919050565b60006004600083815260200190815260200160002060009054906101000a900473ffffffffffffffffffffffffffffffffffffffff169050919050565b600033905090565b610f2883838360016115ad565b505050565b600080610f3984611570565b9050600073ffffffffffffffffffffffffffffffffffffffff168373ffffffffffffffffffffffffffffffffffffffff1614610f7b57610f7a818486611772565b5b600073ffffffffffffffffffffffffffffffffffffffff168173ffffffffffffffffffffffffffffffffffffffff161461100c57610fbd6000856000806115ad565b6001600360008373ffffffffffffffffffffffffffffffffffffffff1673ffffffffffffffffffffffffffffffffffffffff168152602001908152602001600020600082825403925050819055505b600073ffffffffffffffffffffffffffffffffffffffff168573ffffffffffffffffffffffffffffffffffffffff161461108f576001600360008773ffffffffffffffffffffffffffffffffffffffff1673ffffffffffffffffffffffffffffffffffffffff168152602001908152602001600020600082825401925050819055505b846002600086815260200190815260200160002060006101000a81548173ffffffffffffffffffffffffffffffffffffffff021916908373ffffffffffffffffffffffffffffffffffffffff160217905550838573ffffffffffffffffffffffffffffffffffffffff168273ffffffffffffffffffffffffffffffffffffffff167fddf252ad1be2c89b69c2b068fc378daa952ba7f163c4a11628f55a4df523b3ef60405160405180910390a4809150509392505050565b600073ffffffffffffffffffffffffffffffffffffffff168273ffffffffffffffffffffffffffffffffffffffff16036111b857816040517f5b08ba180000000000000000000000000000000000000000000000000000000081526004016111af9190611d84565b60405180910390fd5b80600560008573ffffffffffffffffffffffffffffffffffffffff1673ffffffffffffffffffffffffffffffffffffffff16815260200190815260200160002060008473ffffffffffffffffffffffffffffffffffffffff1673ffffffffffffffffffffffffffffffffffffffff16815260200190815260200160002060006101000a81548160ff0219169083151502179055508173ffffffffffffffffffffffffffffffffffffffff168373ffffffffffffffffffffffffffffffffffffffff167f17307eab39ab6107e8899845ad3d59bd9653f200f220920489ca2b5937696c31836040516112a99190611c13565b60405180910390a3505050565b60008373ffffffffffffffffffffffffffffffffffffffff163b1115611467578273ffffffffffffffffffffffffffffffffffffffff1663150b7a026112fa610f13565b8685856040518563ffffffff1660e01b815260040161131c94939291906126fc565b6020604051808303816000875af192505050801561135857506040513d601f19601f82011682018060405250810190611355919061275d565b60015b6113dc573d8060008114611388576040519150601f19603f3d011682016040523d82523d6000602084013e61138d565b606091505b5060008151036113d457836040517f64a0ae920000000000000000000000000000000000000000000000000000000081526004016113cb9190611d84565b60405180910390fd5b805181602001fd5b63150b7a0260e01b7bffffffffffffffffffffffffffffffffffffffffffffffffffffffff1916817bffffffffffffffffffffffffffffffffffffffffffffffffffffffff19161461146557836040517f64a0ae9200000000000000000000000000000000000000000000000000000000815260040161145c9190611d84565b60405180910390fd5b505b50505050565b606060405180602001604052806000815250905090565b60606000600161149384611836565b01905060008167ffffffffffffffff8111156114b2576114b1611f85565b5b6040519080825280601f01601f1916602001820160405280156114e45781602001600182028036833780820191505090505b509050600082602001820190505b600115611547578080600190039150507f3031323334353637383961626364656600000000000000000000000000000000600a86061a8153600a858161153b5761153a61278a565b5b049450600085036114f2575b819350505050919050565b61156c828260405180602001604052806000815250611989565b5050565b60006002600083815260200190815260200160002060009054906101000a900473ffffffffffffffffffffffffffffffffffffffff169050919050565b80806115e65750600073ffffffffffffffffffffffffffffffffffffffff168273ffffffffffffffffffffffffffffffffffffffff1614155b1561171a5760006115f684610e4e565b9050600073ffffffffffffffffffffffffffffffffffffffff168373ffffffffffffffffffffffffffffffffffffffff161415801561166157508273ffffffffffffffffffffffffffffffffffffffff168173ffffffffffffffffffffffffffffffffffffffff1614155b801561167457506116728184610d50565b155b156116b657826040517fa9fbf51f0000000000000000000000000000000000000000000000000000000081526004016116ad9190611d84565b60405180910390fd5b811561171857838573ffffffffffffffffffffffffffffffffffffffff168273ffffffffffffffffffffffffffffffffffffffff167f8c5be1e5ebec7d5bd14f71427d1e84f3dd0314c0f7b2291e5b200ac8c7c3b92560405160405180910390a45b505b836004600085815260200190815260200160002060006101000a81548173ffffffffffffffffffffffffffffffffffffffff021916908373ffffffffffffffffffffffffffffffffffffffff16021790555050505050565b61177d8383836119a5565b61183157600073ffffffffffffffffffffffffffffffffffffffff168373ffffffffffffffffffffffffffffffffffffffff16036117f257806040517f7e2732890000000000000000000000000000000000000000000000000000000081526004016117e99190611ef4565b60405180910390fd5b81816040517f177e802f0000000000000000000000000000000000000000000000000000000081526004016118289291906127b9565b60405180910390fd5b505050565b600080600090507a184f03e93ff9f4daa797ed6e38ed64bf6a1f0100000000000000008310611894577a184f03e93ff9f4daa797ed6e38ed64bf6a1f010000000000000000838161188a5761188961278a565b5b0492506040810190505b6d04ee2d6d415b85acef810000000083106118d1576d04ee2d6d415b85acef810000000083816118c7576118c661278a565b5b0492506020810190505b662386f26fc10000831061190057662386f26fc1000083816118f6576118f561278a565b5b0492506010810190505b6305f5e1008310611929576305f5e100838161191f5761191e61278a565b5b0492506008810190505b612710831061194e5761271083816119445761194361278a565b5b0492506004810190505b6064831061197157606483816119675761196661278a565b5b0492506002810190505b600a8310611980576001810190505b80915050919050565b6119938383611a66565b6119a060008484846112b6565b505050565b60008073ffffffffffffffffffffffffffffffffffffffff168373ffffffffffffffffffffffffffffffffffffffff1614158015611a5d57508273ffffffffffffffffffffffffffffffffffffffff168473ffffffffffffffffffffffffffffffffffffffff161480611a1e5750611a1d8484610d50565b5b80611a5c57508273ffffffffffffffffffffffffffffffffffffffff16611a4483610ed6565b73ffffffffffffffffffffffffffffffffffffffff16145b5b90509392505050565b600073ffffffffffffffffffffffffffffffffffffffff168273ffffffffffffffffffffffffffffffffffffffff1603611ad85760006040517f64a0ae92000000000000000000000000000000000000000000000000000000008152600401611acf9190611d84565b60405180910390fd5b6000611ae683836000610f2d565b9050600073ffffffffffffffffffffffffffffffffffffffff168173ffffffffffffffffffffffffffffffffffffffff1614611b5a5760006040517f73c6ac6e000000000000000000000000000000000000000000000000000000008152600401611b519190611d84565b60405180910390fd5b505050565b6000604051905090565b600080fd5b600080fd5b60007fffffffff0000000000000000000000000000000000000000000000000000000082169050919050565b611ba881611b73565b8114611bb357600080fd5b50565b600081359050611bc581611b9f565b92915050565b600060208284031215611be157611be0611b69565b5b6000611bef84828501611bb6565b91505092915050565b60008115159050919050565b611c0d81611bf8565b82525050565b6000602082019050611c286000830184611c04565b92915050565b600081519050919050565b600082825260208201905092915050565b60005b83811015611c68578082015181840152602081019050611c4d565b60008484015250505050565b6000601f19601f8301169050919050565b6000611c9082611c2e565b611c9a8185611c39565b9350611caa818560208601611c4a565b611cb381611c74565b840191505092915050565b60006020820190508181036000830152611cd88184611c85565b905092915050565b6000819050919050565b611cf381611ce0565b8114611cfe57600080fd5b50565b600081359050611d1081611cea565b92915050565b600060208284031215611d2c57611d2b611b69565b5b6000611d3a84828501611d01565b91505092915050565b600073ffffffffffffffffffffffffffffffffffffffff82169050919050565b6000611d6e82611d43565b9050919050565b611d7e81611d63565b82525050565b6000602082019050611d996000830184611d75565b92915050565b611da881611d63565b8114611db357600080fd5b50565b600081359050611dc581611d9f565b92915050565b60008060408385031215611de257611de1611b69565b5b6000611df085828601611db6565b9250506020611e0185828601611d01565b9150509250929050565b611e1481611ce0565b82525050565b60006080820190508181036000830152611e348187611c85565b90508181036020830152611e488186611c85565b90508181036040830152611e5c8185611c85565b9050611e6b6060830184611e0b565b95945050505050565b600080600060608486031215611e8d57611e8c611b69565b5b6000611e9b86828701611db6565b9350506020611eac86828701611db6565b9250506040611ebd86828701611d01565b9150509250925092565b600060208284031215611edd57611edc611b69565b5b6000611eeb84828501611db6565b91505092915050565b6000602082019050611f096000830184611e0b565b92915050565b611f1881611bf8565b8114611f2357600080fd5b50565b600081359050611f3581611f0f565b92915050565b60008060408385031215611f5257611f51611b69565b5b6000611f6085828601611db6565b9250506020611f7185828601611f26565b9150509250929050565b600080fd5b600080fd5b7f4e487b7100000000000000000000000000000000000000000000000000000000600052604160045260246000fd5b611fbd82611c74565b810181811067ffffffffffffffff82111715611fdc57611fdb611f85565b5b80604052505050565b6000611fef611b5f565b9050611ffb8282611fb4565b919050565b600067ffffffffffffffff82111561201b5761201a611f85565b5b61202482611c74565b9050602081019050919050565b82818337600083830152505050565b600061205361204e84612000565b611fe5565b90508281526020810184848401111561206f5761206e611f80565b5b61207a848285612031565b509392505050565b600082601f83011261209757612096611f7b565b5b81356120a7848260208601612040565b91505092915050565b600080600080608085870312156120ca576120c9611b69565b5b60006120d887828801611db6565b94505060206120e987828801611db6565b93505060406120fa87828801611d01565b925050606085013567ffffffffffffffff81111561211b5761211a611b6e565b5b61212787828801612082565b91505092959194509250565b600067ffffffffffffffff82111561214e5761214d611f85565b5b61215782611c74565b9050602081019050919050565b600061217761217284612133565b611fe5565b90508281526020810184848401111561219357612192611f80565b5b61219e848285612031565b509392505050565b600082601f8301126121bb576121ba611f7b565b5b81356121cb848260208601612164565b91505092915050565b600080600080608085870312156121ee576121ed611b69565b5b600085013567ffffffffffffffff81111561220c5761220b611b6e565b5b612218878288016121a6565b945050602085013567ffffffffffffffff81111561223957612238611b6e565b5b612245878288016121a6565b935050604085013567ffffffffffffffff81111561226657612265611b6e565b5b612272878288016121a6565b925050606061228387828801611d01565b91505092959194509250565b600080604083850312156122a6576122a5611b69565b5b60006122b485828601611db6565b92505060206122c585828601611db6565b9150509250929050565b7f4e487b7100000000000000000000000000000000000000000000000000000000600052602260045260246000fd5b6000600282049050600182168061231657607f821691505b602082108103612329576123286122cf565b5b50919050565b60006060820190506123446000830186611d75565b6123516020830185611e0b565b61235e6040830184611d75565b949350505050565b600081905092915050565b600061237c82611c2e565b6123868185612366565b9350612396818560208601611c4a565b80840191505092915050565b60006123ae8285612371565b91506123ba8284612371565b91508190509392505050565b60008190508160005260206000209050919050565b60006020601f8301049050919050565b600082821b905092915050565b6000600883026124287fffffffffffffffffffffffffffffffffffffffffffffffffffffffffffffffff826123eb565b61243286836123eb565b95508019841693508086168417925050509392505050565b6000819050919050565b600061246f61246a61246584611ce0565b61244a565b611ce0565b9050919050565b6000819050919050565b61248983612454565b61249d61249582612476565b8484546123f8565b825550505050565b600090565b6124b26124a5565b6124bd818484612480565b505050565b5b818110156124e1576124d66000826124aa565b6001810190506124c3565b5050565b601f821115612526576124f7816123c6565b612500846123db565b8101602085101561250f578190505b61252361251b856123db565b8301826124c2565b50505b505050565b600082821c905092915050565b60006125496000198460080261252b565b1980831691505092915050565b60006125628383612538565b9150826002028217905092915050565b61257b82611c2e565b67ffffffffffffffff81111561259457612593611f85565b5b61259e82546122fe565b6125a98282856124e5565b600060209050601f8311600181146125dc57600084156125ca578287015190505b6125d48582612556565b86555061263c565b601f1984166125ea866123c6565b60005b82811015612612578489015182556001820191506020850194506020810190506125ed565b8683101561262f578489015161262b601f891682612538565b8355505b6001600288020188555050505b505050505050565b7f4e487b7100000000000000000000000000000000000000000000000000000000600052601160045260246000fd5b600061267e82611ce0565b915061268983611ce0565b92508282019050808211156126a1576126a0612644565b5b92915050565b600081519050919050565b600082825260208201905092915050565b60006126ce826126a7565b6126d881856126b2565b93506126e8818560208601611c4a565b6126f181611c74565b840191505092915050565b60006080820190506127116000830187611d75565b61271e6020830186611d75565b61272b6040830185611e0b565b818103606083015261273d81846126c3565b905095945050505050565b60008151905061275781611b9f565b92915050565b60006020828403121561277357612772611b69565b5b600061278184828501612748565b91505092915050565b7f4e487b7100000000000000000000000000000000000000000000000000000000600052601260045260246000fd5b60006040820190506127ce6000830185611d75565b6127db6020830184611e0b565b939250505056fea26469706673582212207deba0f802817f352fa2cabec4c60c0f74140dfb64aa9a8107cfbdf44cf5c45264736f6c63430008140033",
    "linkReferences": {},
    "deployedLinkReferences": {}
}